{
  "_format": "hh-sol-artifact-1",
  "contractName": "TokenVaultV2",
  "sourceName": "contracts/TokenVaultV2.sol",
  "abi": [
    {
      "inputs": [],
      "stateMutability": "nonpayable",
      "type": "constructor"
    },
    {
      "inputs": [],
      "name": "AccessControlBadConfirmation",
      "type": "error"
    },
    {
      "inputs": [
        {
          "internalType": "address",
          "name": "account",
          "type": "address"
        },
        {
          "internalType": "bytes32",
          "name": "neededRole",
          "type": "bytes32"
        }
      ],
      "name": "AccessControlUnauthorizedAccount",
      "type": "error"
    },
    {
      "inputs": [
        {
          "internalType": "address",
          "name": "target",
          "type": "address"
        }
      ],
      "name": "AddressEmptyCode",
      "type": "error"
    },
    {
      "inputs": [
        {
          "internalType": "address",
          "name": "implementation",
          "type": "address"
        }
      ],
      "name": "ERC1967InvalidImplementation",
      "type": "error"
    },
    {
      "inputs": [],
      "name": "ERC1967NonPayable",
      "type": "error"
    },
    {
      "inputs": [],
      "name": "FailedCall",
      "type": "error"
    },
    {
      "inputs": [],
      "name": "InvalidInitialization",
      "type": "error"
    },
    {
      "inputs": [],
      "name": "NotInitializing",
      "type": "error"
    },
    {
      "inputs": [],
      "name": "ReentrancyGuardReentrantCall",
      "type": "error"
    },
    {
      "inputs": [
        {
          "internalType": "address",
          "name": "token",
          "type": "address"
        }
      ],
      "name": "SafeERC20FailedOperation",
      "type": "error"
    },
    {
      "inputs": [],
      "name": "UUPSUnauthorizedCallContext",
      "type": "error"
    },
    {
      "inputs": [
        {
          "internalType": "bytes32",
          "name": "slot",
          "type": "bytes32"
        }
      ],
      "name": "UUPSUnsupportedProxiableUUID",
      "type": "error"
    },
    {
      "anonymous": false,
      "inputs": [
        {
          "indexed": true,
          "internalType": "address",
          "name": "user",
          "type": "address"
        },
        {
          "indexed": false,
          "internalType": "uint256",
          "name": "grossAmount",
          "type": "uint256"
        },
        {
          "indexed": false,
          "internalType": "uint256",
          "name": "feeAmount",
          "type": "uint256"
        },
        {
          "indexed": false,
          "internalType": "uint256",
          "name": "netAmount",
          "type": "uint256"
        }
      ],
      "name": "Deposited",
      "type": "event"
    },
    {
      "anonymous": false,
      "inputs": [
        {
          "indexed": true,
          "internalType": "address",
          "name": "by",
          "type": "address"
        }
      ],
      "name": "DepositsPaused",
      "type": "event"
    },
    {
      "anonymous": false,
      "inputs": [
        {
          "indexed": true,
          "internalType": "address",
          "name": "by",
          "type": "address"
        }
      ],
      "name": "DepositsUnpaused",
      "type": "event"
    },
    {
      "anonymous": false,
      "inputs": [
        {
          "indexed": false,
          "internalType": "uint64",
          "name": "version",
          "type": "uint64"
        }
      ],
      "name": "Initialized",
      "type": "event"
    },
    {
      "anonymous": false,
      "inputs": [
        {
          "indexed": true,
          "internalType": "bytes32",
          "name": "role",
          "type": "bytes32"
        },
        {
          "indexed": true,
          "internalType": "bytes32",
          "name": "previousAdminRole",
          "type": "bytes32"
        },
        {
          "indexed": true,
          "internalType": "bytes32",
          "name": "newAdminRole",
          "type": "bytes32"
        }
      ],
      "name": "RoleAdminChanged",
      "type": "event"
    },
    {
      "anonymous": false,
      "inputs": [
        {
          "indexed": true,
          "internalType": "bytes32",
          "name": "role",
          "type": "bytes32"
        },
        {
          "indexed": true,
          "internalType": "address",
          "name": "account",
          "type": "address"
        },
        {
          "indexed": true,
          "internalType": "address",
          "name": "sender",
          "type": "address"
        }
      ],
      "name": "RoleGranted",
      "type": "event"
    },
    {
      "anonymous": false,
      "inputs": [
        {
          "indexed": true,
          "internalType": "bytes32",
          "name": "role",
          "type": "bytes32"
        },
        {
          "indexed": true,
          "internalType": "address",
          "name": "account",
          "type": "address"
        },
        {
          "indexed": true,
          "internalType": "address",
          "name": "sender",
          "type": "address"
        }
      ],
      "name": "RoleRevoked",
      "type": "event"
    },
    {
      "anonymous": false,
      "inputs": [
        {
          "indexed": true,
          "internalType": "address",
          "name": "implementation",
          "type": "address"
        }
      ],
      "name": "Upgraded",
      "type": "event"
    },
    {
      "anonymous": false,
      "inputs": [
        {
          "indexed": true,
          "internalType": "address",
          "name": "user",
          "type": "address"
        },
        {
          "indexed": false,
          "internalType": "uint256",
          "name": "amount",
          "type": "uint256"
        }
      ],
      "name": "Withdrawn",
      "type": "event"
    },
    {
      "anonymous": false,
      "inputs": [
        {
          "indexed": true,
          "internalType": "address",
          "name": "user",
          "type": "address"
        },
        {
          "indexed": false,
          "internalType": "uint256",
          "name": "amount",
          "type": "uint256"
        }
      ],
      "name": "YieldClaimed",
      "type": "event"
    },
    {
      "anonymous": false,
      "inputs": [
        {
          "indexed": false,
          "internalType": "uint256",
          "name": "yieldRateBps",
          "type": "uint256"
        }
      ],
      "name": "YieldRateUpdated",
      "type": "event"
    },
    {
      "inputs": [],
      "name": "DEFAULT_ADMIN_ROLE",
      "outputs": [
        {
          "internalType": "bytes32",
          "name": "",
          "type": "bytes32"
        }
      ],
      "stateMutability": "view",
      "type": "function"
    },
    {
      "inputs": [],
      "name": "PAUSER_ROLE",
      "outputs": [
        {
          "internalType": "bytes32",
          "name": "",
          "type": "bytes32"
        }
      ],
      "stateMutability": "view",
      "type": "function"
    },
    {
      "inputs": [],
      "name": "UPGRADER_ROLE",
      "outputs": [
        {
          "internalType": "bytes32",
          "name": "",
          "type": "bytes32"
        }
      ],
      "stateMutability": "view",
      "type": "function"
    },
    {
      "inputs": [],
      "name": "UPGRADE_INTERFACE_VERSION",
      "outputs": [
        {
          "internalType": "string",
          "name": "",
          "type": "string"
        }
      ],
      "stateMutability": "view",
      "type": "function"
    },
    {
      "inputs": [
        {
          "internalType": "address",
          "name": "user",
          "type": "address"
        }
      ],
      "name": "balanceOf",
      "outputs": [
        {
          "internalType": "uint256",
          "name": "",
          "type": "uint256"
        }
      ],
      "stateMutability": "view",
      "type": "function"
    },
    {
      "inputs": [],
      "name": "claimYield",
      "outputs": [
        {
          "internalType": "uint256",
          "name": "",
          "type": "uint256"
        }
      ],
      "stateMutability": "nonpayable",
      "type": "function"
    },
    {
      "inputs": [
        {
          "internalType": "uint256",
          "name": "amount",
          "type": "uint256"
        }
      ],
      "name": "deposit",
      "outputs": [],
      "stateMutability": "nonpayable",
      "type": "function"
    },
    {
      "inputs": [],
      "name": "getDepositFee",
      "outputs": [
        {
          "internalType": "uint256",
          "name": "",
          "type": "uint256"
        }
      ],
      "stateMutability": "view",
      "type": "function"
    },
    {
      "inputs": [],
      "name": "getImplementationVersion",
      "outputs": [
        {
          "internalType": "string",
          "name": "",
          "type": "string"
        }
      ],
      "stateMutability": "pure",
      "type": "function"
    },
    {
      "inputs": [
        {
          "internalType": "bytes32",
          "name": "role",
          "type": "bytes32"
        }
      ],
      "name": "getRoleAdmin",
      "outputs": [
        {
          "internalType": "bytes32",
          "name": "",
          "type": "bytes32"
        }
      ],
      "stateMutability": "view",
      "type": "function"
    },
    {
      "inputs": [
        {
          "internalType": "address",
          "name": "user",
          "type": "address"
        }
      ],
      "name": "getUserYield",
      "outputs": [
        {
          "internalType": "uint256",
          "name": "",
          "type": "uint256"
        }
      ],
      "stateMutability": "view",
      "type": "function"
    },
    {
      "inputs": [],
      "name": "getYieldRate",
      "outputs": [
        {
          "internalType": "uint256",
          "name": "",
          "type": "uint256"
        }
      ],
      "stateMutability": "view",
      "type": "function"
    },
    {
      "inputs": [
        {
          "internalType": "bytes32",
          "name": "role",
          "type": "bytes32"
        },
        {
          "internalType": "address",
          "name": "account",
          "type": "address"
        }
      ],
      "name": "grantRole",
      "outputs": [],
      "stateMutability": "nonpayable",
      "type": "function"
    },
    {
      "inputs": [
        {
          "internalType": "bytes32",
          "name": "role",
          "type": "bytes32"
        },
        {
          "internalType": "address",
          "name": "account",
          "type": "address"
        }
      ],
      "name": "hasRole",
      "outputs": [
        {
          "internalType": "bool",
          "name": "",
          "type": "bool"
        }
      ],
      "stateMutability": "view",
      "type": "function"
    },
    {
      "inputs": [
        {
          "internalType": "address",
          "name": "_tokenAddr",
          "type": "address"
        },
        {
          "internalType": "address",
          "name": "_admin",
          "type": "address"
        },
        {
          "internalType": "uint256",
          "name": "_depositFee",
          "type": "uint256"
        }
      ],
      "name": "initialize",
      "outputs": [],
      "stateMutability": "nonpayable",
      "type": "function"
    },
    {
      "inputs": [],
      "name": "initializeV2",
      "outputs": [],
      "stateMutability": "nonpayable",
      "type": "function"
    },
    {
      "inputs": [],
      "name": "isDepositsPaused",
      "outputs": [
        {
          "internalType": "bool",
          "name": "",
          "type": "bool"
        }
      ],
      "stateMutability": "view",
      "type": "function"
    },
    {
      "inputs": [],
      "name": "pauseDeposits",
      "outputs": [],
      "stateMutability": "nonpayable",
      "type": "function"
    },
    {
      "inputs": [],
      "name": "proxiableUUID",
      "outputs": [
        {
          "internalType": "bytes32",
          "name": "",
          "type": "bytes32"
        }
      ],
      "stateMutability": "view",
      "type": "function"
    },
    {
      "inputs": [
        {
          "internalType": "bytes32",
          "name": "role",
          "type": "bytes32"
        },
        {
          "internalType": "address",
          "name": "callerConfirmation",
          "type": "address"
        }
      ],
      "name": "renounceRole",
      "outputs": [],
      "stateMutability": "nonpayable",
      "type": "function"
    },
    {
      "inputs": [
        {
          "internalType": "bytes32",
          "name": "role",
          "type": "bytes32"
        },
        {
          "internalType": "address",
          "name": "account",
          "type": "address"
        }
      ],
      "name": "revokeRole",
      "outputs": [],
      "stateMutability": "nonpayable",
      "type": "function"
    },
    {
      "inputs": [
        {
          "internalType": "uint256",
          "name": "_yieldRate",
          "type": "uint256"
        }
      ],
      "name": "setYieldRate",
      "outputs": [],
      "stateMutability": "nonpayable",
      "type": "function"
    },
    {
      "inputs": [
        {
          "internalType": "bytes4",
          "name": "interfaceId",
          "type": "bytes4"
        }
      ],
      "name": "supportsInterface",
      "outputs": [
        {
          "internalType": "bool",
          "name": "",
          "type": "bool"
        }
      ],
      "stateMutability": "view",
      "type": "function"
    },
    {
      "inputs": [],
      "name": "totalDeposits",
      "outputs": [
        {
          "internalType": "uint256",
          "name": "",
          "type": "uint256"
        }
      ],
      "stateMutability": "view",
      "type": "function"
    },
    {
      "inputs": [],
      "name": "unpauseDeposits",
      "outputs": [],
      "stateMutability": "nonpayable",
      "type": "function"
    },
    {
      "inputs": [
        {
          "internalType": "address",
          "name": "newImplementation",
          "type": "address"
        },
        {
          "internalType": "bytes",
          "name": "data",
          "type": "bytes"
        }
      ],
      "name": "upgradeToAndCall",
      "outputs": [],
      "stateMutability": "payable",
      "type": "function"
    },
    {
      "inputs": [
        {
          "internalType": "uint256",
          "name": "amount",
          "type": "uint256"
        }
      ],
      "name": "withdraw",
      "outputs": [],
      "stateMutability": "nonpayable",
      "type": "function"
    }
  ],
  "bytecode": "0x60a06040523060805234801561001457600080fd5b5061001d61002a565b61002561002a565b6100dc565b7ff0c57e16840df040f15088dc2f81fe391c3923bec73e23a9662efc9c229c6a00805468010000000000000000900460ff161561007a5760405163f92ee8a960e01b815260040160405180910390fd5b80546001600160401b03908116146100d95780546001600160401b0319166001600160401b0390811782556040519081527fc7f505b2f371ae2175ee4913f4499e1f2633a7b5936321eed1cdaeb6115181d29060200160405180910390a15b50565b608051611ada62000106600039600081816112be015281816112e7015261144a0152611ada6000f3fe60806040526004361061019c5760003560e01c806352d1902d116100ec578063ad3cb1cc1161008a578063d547741f11610064578063d547741f14610474578063e63ab1e914610494578063f1009899146104c8578063f72c0d8b146104dd57600080fd5b8063ad3cb1cc146103eb578063b6b55f2514610429578063bc327e401461044957600080fd5b806370a08231116100c657806370a082311461036b5780637d882097146103a157806391d14854146103b6578063a217fddf146103d657600080fd5b806352d1902d1461032c5780635cd8a76b1461034157806363d8882a1461035657600080fd5b806327042b841161015957806336568abe1161013357806336568abe146102c4578063406cf229146102e45780634229abdd146102f95780634f1ef2861461031957600080fd5b806327042b841461026c5780632e1a7d4d146102845780632f2ff15d146102a457600080fd5b806301ffc9a7146101a157806302191980146101d65780630de705b5146101ed5780631411dab01461020c5780631794bb3c1461022c578063248a9ca31461024c575b600080fd5b3480156101ad57600080fd5b506101c16101bc366004611789565b610511565b60405190151581526020015b60405180910390f35b3480156101e257600080fd5b506101eb610548565b005b3480156101f957600080fd5b506001545b6040519081526020016101cd565b34801561021857600080fd5b506101eb6102273660046117b3565b6105ad565b34801561023857600080fd5b506101eb6102473660046117e8565b61064c565b34801561025857600080fd5b506101fe6102673660046117b3565b6108ad565b34801561027857600080fd5b5060385460ff166101c1565b34801561029057600080fd5b506101eb61029f3660046117b3565b6108cf565b3480156102b057600080fd5b506101eb6102bf366004611824565b610a26565b3480156102d057600080fd5b506101eb6102df366004611824565b610a48565b3480156102f057600080fd5b506101fe610a80565b34801561030557600080fd5b506101fe610314366004611850565b610c84565b6101eb610327366004611881565b610d2b565b34801561033857600080fd5b506101fe610d4a565b34801561034d57600080fd5b506101eb610d67565b34801561036257600080fd5b506101eb610e38565b34801561037757600080fd5b506101fe610386366004611850565b6001600160a01b031660009081526003602052604090205490565b3480156103ad57600080fd5b506002546101fe565b3480156103c257600080fd5b506101c16103d1366004611824565b610e9a565b3480156103e257600080fd5b506101fe600081565b3480156103f757600080fd5b5061041c604051806040016040528060058152602001640352e302e360dc1b81525081565b6040516101cd9190611967565b34801561043557600080fd5b506101eb6104443660046117b3565b610ed2565b34801561045557600080fd5b506040805180820190915260028152612b1960f11b602082015261041c565b34801561048057600080fd5b506101eb61048f366004611824565b61107e565b3480156104a057600080fd5b506101fe7f65d7a28e3265b37a6474929f336521b332c1681b933f6cb9f3376673440d862a81565b3480156104d457600080fd5b506036546101fe565b3480156104e957600080fd5b506101fe7f189ab7a9244df0848122154315af71fe140f3db0fe014031783b0946b8c9d2e381565b60006001600160e01b03198216637965db0b60e01b148061054257506301ffc9a760e01b6001600160e01b03198316145b92915050565b7f65d7a28e3265b37a6474929f336521b332c1681b933f6cb9f3376673440d862a6105728161109a565b6038805460ff1916600117905560405133907feb225a736fbfee3f85ccb72bdf84ff0396ab358b7970e2cc351ab3e3fd92358d90600090a250565b60006105b88161109a565b61271082111561060f5760405162461bcd60e51b815260206004820152601a60248201527f546f6b656e5661756c7456323a20696e76616c6964207261746500000000000060448201526064015b60405180910390fd5b60368290556040518281527f5842a31a46ea5ce5b950bf6d04c8b832a9deae72e0e54bcf928f0d72123f2865906020015b60405180910390a15050565b60006106566110a4565b805490915060ff600160401b820416159067ffffffffffffffff1660008115801561067e5750825b905060008267ffffffffffffffff16600114801561069b5750303b155b9050811580156106a9575080155b156106c75760405163f92ee8a960e01b815260040160405180910390fd5b845467ffffffffffffffff1916600117855583156106f157845460ff60401b1916600160401b1785555b6001600160a01b0388166107475760405162461bcd60e51b815260206004820152601d60248201527f546f6b656e5661756c7456313a20746f6b656e2061646472207a65726f0000006044820152606401610606565b6001600160a01b03871661079d5760405162461bcd60e51b815260206004820152601d60248201527f546f6b656e5661756c7456313a2061646d696e2061646472207a65726f0000006044820152606401610606565b6127108611156107ef5760405162461bcd60e51b815260206004820152601960248201527f546f6b656e5661756c7456313a20696e76616c696420666565000000000000006044820152606401610606565b6107f76110cd565b6107ff6110cd565b6108076110d7565b600080546001600160a01b0319166001600160a01b038a16178155600187905561083190886110e7565b5061085c7f189ab7a9244df0848122154315af71fe140f3db0fe014031783b0946b8c9d2e3886110e7565b5083156108a357845460ff60401b19168555604051600181527fc7f505b2f371ae2175ee4913f4499e1f2633a7b5936321eed1cdaeb6115181d29060200160405180910390a15b5050505050505050565b6000908152600080516020611a65833981519152602052604090206001015490565b6108d761118c565b600081116109205760405162461bcd60e51b81526020600482015260166024820152750546f6b656e5661756c7456313a20616d6f756e743d360541b6044820152606401610606565b336000908152600360205260409020548181101561098b5760405162461bcd60e51b815260206004820152602260248201527f546f6b656e5661756c7456313a20696e73756666696369656e742062616c616e604482015261636560f01b6064820152608401610606565b61099582826119b0565b33600090815260036020526040812091909155600280548492906109ba9084906119b0565b90915550506000546109d6906001600160a01b031633846111c4565b60405182815233907f7084f5476618d8e60b11ef0d7d3f06914655adb8793e28ff7f018d4c76d505d59060200160405180910390a250610a236001600080516020611a8583398151915255565b50565b610a2f826108ad565b610a388161109a565b610a4283836110e7565b50505050565b6001600160a01b0381163314610a715760405163334bd91960e11b815260040160405180910390fd5b610a7b8282611237565b505050565b6000610a8a61118c565b3360009081526037602052604081205490819003610af057336000818152603760209081526040808320429055519182527fc04825ba3f383b602255d2a13065a68e325c65c9e0ed5d031ea2b06f641873af910160405180910390a26000915050610c6a565b6000610afb33610c84565b33600090815260376020526040902042905590508015610c315780600254610b2391906119c3565b6000546040516370a0823160e01b81523060048201526001600160a01b03909116906370a0823190602401602060405180830381865afa158015610b6b573d6000803e3d6000fd5b505050506040513d601f19601f82011682018060405250810190610b8f91906119d6565b1015610bf35760405162461bcd60e51b815260206004820152602d60248201527f546f6b656e5661756c7456323a20696e73756666696369656e7420726573657260448201526c1d995cc8199bdc881e5a595b19609a1b6064820152608401610606565b3360009081526003602052604081208054839290610c129084906119c3565b925050819055508060026000828254610c2b91906119c3565b90915550505b60405181815233907fc04825ba3f383b602255d2a13065a68e325c65c9e0ed5d031ea2b06f641873af9060200160405180910390a29150505b610c816001600080516020611a8583398151915255565b90565b6001600160a01b038116600090815260036020526040812054808203610cad5750600092915050565b6001600160a01b038316600090815260376020526040812054908115610cd35781610cd5565b425b905081600003610cea57506000949350505050565b6000610cf682426119b0565b905064496cebb8008160365486610d0d91906119ef565b610d1791906119ef565b610d219190611a06565b9695505050505050565b610d336112b3565b610d3c82611358565b610d468282611382565b5050565b6000610d5461143f565b50600080516020611a4583398151915290565b60026000610d736110a4565b8054909150600160401b900460ff1680610d9b5750805467ffffffffffffffff808416911610155b15610db95760405163f92ee8a960e01b815260040160405180910390fd5b805468ffffffffffffffffff191667ffffffffffffffff831617600160401b178155610de36110cd565b610deb6110cd565b610df36110d7565b805460ff60401b1916815560405167ffffffffffffffff831681527fc7f505b2f371ae2175ee4913f4499e1f2633a7b5936321eed1cdaeb6115181d290602001610640565b7f65d7a28e3265b37a6474929f336521b332c1681b933f6cb9f3376673440d862a610e628161109a565b6038805460ff1916905560405133907fd92e31f504caf26579aa9a5860a669bf0ccf07c267baa65bc79bf3ee57cfa27c90600090a250565b6000918252600080516020611a65833981519152602090815260408084206001600160a01b0393909316845291905290205460ff1690565b610eda61118c565b60385460ff1615610f2d5760405162461bcd60e51b815260206004820152601d60248201527f546f6b656e5661756c7456323a206465706f73697473207061757365640000006044820152606401610606565b60008111610f765760405162461bcd60e51b81526020600482015260166024820152750546f6b656e5661756c7456313a20616d6f756e743d360541b6044820152606401610606565b600061271060015483610f8991906119ef565b610f939190611a06565b90506000610fa182846119b0565b600054909150610fbc906001600160a01b0316333086611488565b3360009081526003602052604081208054839290610fdb9084906119c3565b925050819055508060026000828254610ff491906119c3565b9091555050336000908152603760205260408120549003611022573360009081526037602052604090204290555b604080518481526020810184905290810182905233907f91ede45f04a37a7c170f5c1207df3b6bc748dc1e04ad5e917a241d0f52feada39060600160405180910390a25050610a236001600080516020611a8583398151915255565b611087826108ad565b6110908161109a565b610a428383611237565b610a2381336114c1565b6000807ff0c57e16840df040f15088dc2f81fe391c3923bec73e23a9662efc9c229c6a00610542565b6110d56114fa565b565b6110df6114fa565b6110d561151f565b6000600080516020611a658339815191526111028484610e9a565b611182576000848152602082815260408083206001600160a01b03871684529091529020805460ff191660011790556111383390565b6001600160a01b0316836001600160a01b0316857f2f8788117e7eff1d82e926ec794901d17c78024a50270940304540a733656f0d60405160405180910390a46001915050610542565b6000915050610542565b600080516020611a858339815191528054600119016111be57604051633ee5aeb560e01b815260040160405180910390fd5b60029055565b6040516001600160a01b03838116602483015260448201839052610a7b91859182169063a9059cbb906064015b604051602081830303815290604052915060e01b6020820180516001600160e01b038381831617835250505050611527565b6001600080516020611a8583398151915255565b6000600080516020611a658339815191526112528484610e9a565b15611182576000848152602082815260408083206001600160a01b0387168085529252808320805460ff1916905551339287917ff6391f5c32d9c69d2a47ea670b442974b53935d1edc7fd64eb21e047a839171b9190a46001915050610542565b306001600160a01b037f000000000000000000000000000000000000000000000000000000000000000016148061133a57507f00000000000000000000000000000000000000000000000000000000000000006001600160a01b031661132e600080516020611a45833981519152546001600160a01b031690565b6001600160a01b031614155b156110d55760405163703e46dd60e11b815260040160405180910390fd5b7f189ab7a9244df0848122154315af71fe140f3db0fe014031783b0946b8c9d2e3610d468161109a565b816001600160a01b03166352d1902d6040518163ffffffff1660e01b8152600401602060405180830381865afa9250505080156113dc575060408051601f3d908101601f191682019092526113d9918101906119d6565b60015b61140457604051634c9c8ce360e01b81526001600160a01b0383166004820152602401610606565b600080516020611a45833981519152811461143557604051632a87526960e21b815260048101829052602401610606565b610a7b8383611598565b306001600160a01b037f000000000000000000000000000000000000000000000000000000000000000016146110d55760405163703e46dd60e11b815260040160405180910390fd5b6040516001600160a01b038481166024830152838116604483015260648201839052610a429186918216906323b872dd906084016111f1565b6114cb8282610e9a565b610d465760405163e2517d3f60e01b81526001600160a01b038216600482015260248101839052604401610606565b6115026115ee565b6110d557604051631afcd79f60e31b815260040160405180910390fd5b6112236114fa565b600080602060008451602086016000885af18061154a576040513d6000823e3d81fd5b50506000513d9150811561156257806001141561156f565b6001600160a01b0384163b155b15610a4257604051635274afe760e01b81526001600160a01b0385166004820152602401610606565b6115a182611608565b6040516001600160a01b038316907fbc7cd75a20ee27fd9adebab32041f755214dbc6bffa90cc0225b39da2e5c2d3b90600090a28051156115e657610a7b828261166d565b610d466116e3565b60006115f86110a4565b54600160401b900460ff16919050565b806001600160a01b03163b60000361163e57604051634c9c8ce360e01b81526001600160a01b0382166004820152602401610606565b600080516020611a4583398151915280546001600160a01b0319166001600160a01b0392909216919091179055565b6060600080846001600160a01b03168460405161168a9190611a28565b600060405180830381855af49150503d80600081146116c5576040519150601f19603f3d011682016040523d82523d6000602084013e6116ca565b606091505b50915091506116da858383611702565b95945050505050565b34156110d55760405163b398979f60e01b815260040160405180910390fd5b6060826117175761171282611761565b61175a565b815115801561172e57506001600160a01b0384163b155b1561175757604051639996b31560e01b81526001600160a01b0385166004820152602401610606565b50805b9392505050565b80511561177057805160208201fd5b60405163d6bda27560e01b815260040160405180910390fd5b60006020828403121561179b57600080fd5b81356001600160e01b03198116811461175a57600080fd5b6000602082840312156117c557600080fd5b5035919050565b80356001600160a01b03811681146117e357600080fd5b919050565b6000806000606084860312156117fd57600080fd5b611806846117cc565b9250611814602085016117cc565b9150604084013590509250925092565b6000806040838503121561183757600080fd5b82359150611847602084016117cc565b90509250929050565b60006020828403121561186257600080fd5b61175a826117cc565b634e487b7160e01b600052604160045260246000fd5b6000806040838503121561189457600080fd5b61189d836117cc565b9150602083013567ffffffffffffffff808211156118ba57600080fd5b818501915085601f8301126118ce57600080fd5b8135818111156118e0576118e061186b565b604051601f8201601f19908116603f011681019083821181831017156119085761190861186b565b8160405282815288602084870101111561192157600080fd5b8260208601602083013760006020848301015280955050505050509250929050565b60005b8381101561195e578181015183820152602001611946565b50506000910152565b6020815260008251806020840152611986816040850160208701611943565b601f01601f19169190910160400192915050565b634e487b7160e01b600052601160045260246000fd5b818103818111156105425761054261199a565b808201808211156105425761054261199a565b6000602082840312156119e857600080fd5b5051919050565b80820281158282048414176105425761054261199a565b600082611a2357634e487b7160e01b600052601260045260246000fd5b500490565b60008251611a3a818460208701611943565b919091019291505056fe360894a13ba1a3210667c828492db98dca3e2076cc3735a920a3ca505d382bbc02dd7bc7dec4dceedda775e58dd541e08a116c6c53815c0bd028192f7b6268009b779b17422d0df92223018b32b4d1fa46e071723d6817e2486d003becc55f00a2646970667358221220c97b192468dee8d284594ab2847abeeef3759caf36f5cb7f41bd4b8af24711d964736f6c63430008180033",
  "linkReferences": {},
  "deployedLinkReferences": {}
}