{
  "_format": "hh-sol-artifact-1",
  "contractName": "TokenVaultV1",
  "sourceName": "contracts/TokenVaultV1.sol",
  "abi": [
    {
      "inputs": [],
      "stateMutability": "nonpayable",
      "type": "constructor"
    },
    {
      "inputs": [],
      "name": "AccessControlBadConfirmation",
      "type": "error"
    },
    {
      "inputs": [
        {
          "internalType": "address",
          "name": "account",
          "type": "address"
        },
        {
          "internalType": "bytes32",
          "name": "neededRole",
          "type": "bytes32"
        }
      ],
      "name": "AccessControlUnauthorizedAccount",
      "type": "error"
    },
    {
      "inputs": [
        {
          "internalType": "address",
          "name": "target",
          "type": "address"
        }
      ],
      "name": "AddressEmptyCode",
      "type": "error"
    },
    {
      "inputs": [
        {
          "internalType": "address",
          "name": "implementation",
          "type": "address"
        }
      ],
      "name": "ERC1967InvalidImplementation",
      "type": "error"
    },
    {
      "inputs": [],
      "name": "ERC1967NonPayable",
      "type": "error"
    },
    {
      "inputs": [],
      "name": "FailedCall",
      "type": "error"
    },
    {
      "inputs": [],
      "name": "InvalidInitialization",
      "type": "error"
    },
    {
      "inputs": [],
      "name": "NotInitializing",
      "type": "error"
    },
    {
      "inputs": [],
      "name": "ReentrancyGuardReentrantCall",
      "type": "error"
    },
    {
      "inputs": [
        {
          "internalType": "address",
          "name": "token",
          "type": "address"
        }
      ],
      "name": "SafeERC20FailedOperation",
      "type": "error"
    },
    {
      "inputs": [],
      "name": "UUPSUnauthorizedCallContext",
      "type": "error"
    },
    {
      "inputs": [
        {
          "internalType": "bytes32",
          "name": "slot",
          "type": "bytes32"
        }
      ],
      "name": "UUPSUnsupportedProxiableUUID",
      "type": "error"
    },
    {
      "anonymous": false,
      "inputs": [
        {
          "indexed": true,
          "internalType": "address",
          "name": "user",
          "type": "address"
        },
        {
          "indexed": false,
          "internalType": "uint256",
          "name": "grossAmount",
          "type": "uint256"
        },
        {
          "indexed": false,
          "internalType": "uint256",
          "name": "feeAmount",
          "type": "uint256"
        },
        {
          "indexed": false,
          "internalType": "uint256",
          "name": "netAmount",
          "type": "uint256"
        }
      ],
      "name": "Deposited",
      "type": "event"
    },
    {
      "anonymous": false,
      "inputs": [
        {
          "indexed": false,
          "internalType": "uint64",
          "name": "version",
          "type": "uint64"
        }
      ],
      "name": "Initialized",
      "type": "event"
    },
    {
      "anonymous": false,
      "inputs": [
        {
          "indexed": true,
          "internalType": "bytes32",
          "name": "role",
          "type": "bytes32"
        },
        {
          "indexed": true,
          "internalType": "bytes32",
          "name": "previousAdminRole",
          "type": "bytes32"
        },
        {
          "indexed": true,
          "internalType": "bytes32",
          "name": "newAdminRole",
          "type": "bytes32"
        }
      ],
      "name": "RoleAdminChanged",
      "type": "event"
    },
    {
      "anonymous": false,
      "inputs": [
        {
          "indexed": true,
          "internalType": "bytes32",
          "name": "role",
          "type": "bytes32"
        },
        {
          "indexed": true,
          "internalType": "address",
          "name": "account",
          "type": "address"
        },
        {
          "indexed": true,
          "internalType": "address",
          "name": "sender",
          "type": "address"
        }
      ],
      "name": "RoleGranted",
      "type": "event"
    },
    {
      "anonymous": false,
      "inputs": [
        {
          "indexed": true,
          "internalType": "bytes32",
          "name": "role",
          "type": "bytes32"
        },
        {
          "indexed": true,
          "internalType": "address",
          "name": "account",
          "type": "address"
        },
        {
          "indexed": true,
          "internalType": "address",
          "name": "sender",
          "type": "address"
        }
      ],
      "name": "RoleRevoked",
      "type": "event"
    },
    {
      "anonymous": false,
      "inputs": [
        {
          "indexed": true,
          "internalType": "address",
          "name": "implementation",
          "type": "address"
        }
      ],
      "name": "Upgraded",
      "type": "event"
    },
    {
      "anonymous": false,
      "inputs": [
        {
          "indexed": true,
          "internalType": "address",
          "name": "user",
          "type": "address"
        },
        {
          "indexed": false,
          "internalType": "uint256",
          "name": "amount",
          "type": "uint256"
        }
      ],
      "name": "Withdrawn",
      "type": "event"
    },
    {
      "inputs": [],
      "name": "DEFAULT_ADMIN_ROLE",
      "outputs": [
        {
          "internalType": "bytes32",
          "name": "",
          "type": "bytes32"
        }
      ],
      "stateMutability": "view",
      "type": "function"
    },
    {
      "inputs": [],
      "name": "UPGRADER_ROLE",
      "outputs": [
        {
          "internalType": "bytes32",
          "name": "",
          "type": "bytes32"
        }
      ],
      "stateMutability": "view",
      "type": "function"
    },
    {
      "inputs": [],
      "name": "UPGRADE_INTERFACE_VERSION",
      "outputs": [
        {
          "internalType": "string",
          "name": "",
          "type": "string"
        }
      ],
      "stateMutability": "view",
      "type": "function"
    },
    {
      "inputs": [
        {
          "internalType": "address",
          "name": "user",
          "type": "address"
        }
      ],
      "name": "balanceOf",
      "outputs": [
        {
          "internalType": "uint256",
          "name": "",
          "type": "uint256"
        }
      ],
      "stateMutability": "view",
      "type": "function"
    },
    {
      "inputs": [
        {
          "internalType": "uint256",
          "name": "amount",
          "type": "uint256"
        }
      ],
      "name": "deposit",
      "outputs": [],
      "stateMutability": "nonpayable",
      "type": "function"
    },
    {
      "inputs": [],
      "name": "getDepositFee",
      "outputs": [
        {
          "internalType": "uint256",
          "name": "",
          "type": "uint256"
        }
      ],
      "stateMutability": "view",
      "type": "function"
    },
    {
      "inputs": [],
      "name": "getImplementationVersion",
      "outputs": [
        {
          "internalType": "string",
          "name": "",
          "type": "string"
        }
      ],
      "stateMutability": "pure",
      "type": "function"
    },
    {
      "inputs": [
        {
          "internalType": "bytes32",
          "name": "role",
          "type": "bytes32"
        }
      ],
      "name": "getRoleAdmin",
      "outputs": [
        {
          "internalType": "bytes32",
          "name": "",
          "type": "bytes32"
        }
      ],
      "stateMutability": "view",
      "type": "function"
    },
    {
      "inputs": [
        {
          "internalType": "bytes32",
          "name": "role",
          "type": "bytes32"
        },
        {
          "internalType": "address",
          "name": "account",
          "type": "address"
        }
      ],
      "name": "grantRole",
      "outputs": [],
      "stateMutability": "nonpayable",
      "type": "function"
    },
    {
      "inputs": [
        {
          "internalType": "bytes32",
          "name": "role",
          "type": "bytes32"
        },
        {
          "internalType": "address",
          "name": "account",
          "type": "address"
        }
      ],
      "name": "hasRole",
      "outputs": [
        {
          "internalType": "bool",
          "name": "",
          "type": "bool"
        }
      ],
      "stateMutability": "view",
      "type": "function"
    },
    {
      "inputs": [
        {
          "internalType": "address",
          "name": "_tokenAddr",
          "type": "address"
        },
        {
          "internalType": "address",
          "name": "_admin",
          "type": "address"
        },
        {
          "internalType": "uint256",
          "name": "_depositFee",
          "type": "uint256"
        }
      ],
      "name": "initialize",
      "outputs": [],
      "stateMutability": "nonpayable",
      "type": "function"
    },
    {
      "inputs": [],
      "name": "proxiableUUID",
      "outputs": [
        {
          "internalType": "bytes32",
          "name": "",
          "type": "bytes32"
        }
      ],
      "stateMutability": "view",
      "type": "function"
    },
    {
      "inputs": [
        {
          "internalType": "bytes32",
          "name": "role",
          "type": "bytes32"
        },
        {
          "internalType": "address",
          "name": "callerConfirmation",
          "type": "address"
        }
      ],
      "name": "renounceRole",
      "outputs": [],
      "stateMutability": "nonpayable",
      "type": "function"
    },
    {
      "inputs": [
        {
          "internalType": "bytes32",
          "name": "role",
          "type": "bytes32"
        },
        {
          "internalType": "address",
          "name": "account",
          "type": "address"
        }
      ],
      "name": "revokeRole",
      "outputs": [],
      "stateMutability": "nonpayable",
      "type": "function"
    },
    {
      "inputs": [
        {
          "internalType": "bytes4",
          "name": "interfaceId",
          "type": "bytes4"
        }
      ],
      "name": "supportsInterface",
      "outputs": [
        {
          "internalType": "bool",
          "name": "",
          "type": "bool"
        }
      ],
      "stateMutability": "view",
      "type": "function"
    },
    {
      "inputs": [],
      "name": "totalDeposits",
      "outputs": [
        {
          "internalType": "uint256",
          "name": "",
          "type": "uint256"
        }
      ],
      "stateMutability": "view",
      "type": "function"
    },
    {
      "inputs": [
        {
          "internalType": "address",
          "name": "newImplementation",
          "type": "address"
        },
        {
          "internalType": "bytes",
          "name": "data",
          "type": "bytes"
        }
      ],
      "name": "upgradeToAndCall",
      "outputs": [],
      "stateMutability": "payable",
      "type": "function"
    },
    {
      "inputs": [
        {
          "internalType": "uint256",
          "name": "amount",
          "type": "uint256"
        }
      ],
      "name": "withdraw",
      "outputs": [],
      "stateMutability": "nonpayable",
      "type": "function"
    }
  ],
  "bytecode": "0x60a06040523060805234801561001457600080fd5b5061001d610022565b6100d4565b7ff0c57e16840df040f15088dc2f81fe391c3923bec73e23a9662efc9c229c6a00805468010000000000000000900460ff16156100725760405163f92ee8a960e01b815260040160405180910390fd5b80546001600160401b03908116146100d15780546001600160401b0319166001600160401b0390811782556040519081527fc7f505b2f371ae2175ee4913f4499e1f2633a7b5936321eed1cdaeb6115181d29060200160405180910390a15b50565b6080516113f96100fd60003960008181610bdd01528181610c060152610d6901526113f96000f3fe6080604052600436106101095760003560e01c806370a0823111610095578063ad3cb1cc11610064578063ad3cb1cc146102ac578063b6b55f25146102ea578063bc327e401461030a578063d547741f14610335578063f72c0d8b1461035557600080fd5b806370a082311461022c5780637d8820971461026257806391d1485414610277578063a217fddf1461029757600080fd5b80632e1a7d4d116100dc5780632e1a7d4d146101a45780632f2ff15d146101c457806336568abe146101e45780634f1ef2861461020457806352d1902d1461021757600080fd5b806301ffc9a71461010e5780630de705b5146101435780631794bb3c14610162578063248a9ca314610184575b600080fd5b34801561011a57600080fd5b5061012e6101293660046110a8565b610389565b60405190151581526020015b60405180910390f35b34801561014f57600080fd5b506001545b60405190815260200161013a565b34801561016e57600080fd5b5061018261017d3660046110ee565b6103c0565b005b34801561019057600080fd5b5061015461019f36600461112a565b610626565b3480156101b057600080fd5b506101826101bf36600461112a565b610648565b3480156101d057600080fd5b506101826101df366004611143565b61079f565b3480156101f057600080fd5b506101826101ff366004611143565b6107c1565b610182610212366004611185565b6107f9565b34801561022357600080fd5b50610154610818565b34801561023857600080fd5b50610154610247366004611247565b6001600160a01b031660009081526003602052604090205490565b34801561026e57600080fd5b50600254610154565b34801561028357600080fd5b5061012e610292366004611143565b610835565b3480156102a357600080fd5b50610154600081565b3480156102b857600080fd5b506102dd604051806040016040528060058152602001640352e302e360dc1b81525081565b60405161013a9190611286565b3480156102f657600080fd5b5061018261030536600461112a565b61086d565b34801561031657600080fd5b50604080518082019091526002815261563160f01b60208201526102dd565b34801561034157600080fd5b50610182610350366004611143565b61099d565b34801561036157600080fd5b506101547f189ab7a9244df0848122154315af71fe140f3db0fe014031783b0946b8c9d2e381565b60006001600160e01b03198216637965db0b60e01b14806103ba57506301ffc9a760e01b6001600160e01b03198316145b92915050565b60006103ca6109b9565b805490915060ff600160401b820416159067ffffffffffffffff166000811580156103f25750825b905060008267ffffffffffffffff16600114801561040f5750303b155b90508115801561041d575080155b1561043b5760405163f92ee8a960e01b815260040160405180910390fd5b845467ffffffffffffffff19166001178555831561046557845460ff60401b1916600160401b1785555b6001600160a01b0388166104c05760405162461bcd60e51b815260206004820152601d60248201527f546f6b656e5661756c7456313a20746f6b656e2061646472207a65726f00000060448201526064015b60405180910390fd5b6001600160a01b0387166105165760405162461bcd60e51b815260206004820152601d60248201527f546f6b656e5661756c7456313a2061646d696e2061646472207a65726f00000060448201526064016104b7565b6127108611156105685760405162461bcd60e51b815260206004820152601960248201527f546f6b656e5661756c7456313a20696e76616c6964206665650000000000000060448201526064016104b7565b6105706109e2565b6105786109e2565b6105806109ec565b600080546001600160a01b0319166001600160a01b038a1617815560018790556105aa90886109fc565b506105d57f189ab7a9244df0848122154315af71fe140f3db0fe014031783b0946b8c9d2e3886109fc565b50831561061c57845460ff60401b19168555604051600181527fc7f505b2f371ae2175ee4913f4499e1f2633a7b5936321eed1cdaeb6115181d29060200160405180910390a15b5050505050505050565b6000908152600080516020611384833981519152602052604090206001015490565b610650610aa1565b600081116106995760405162461bcd60e51b81526020600482015260166024820152750546f6b656e5661756c7456313a20616d6f756e743d360541b60448201526064016104b7565b33600090815260036020526040902054818110156107045760405162461bcd60e51b815260206004820152602260248201527f546f6b656e5661756c7456313a20696e73756666696369656e742062616c616e604482015261636560f01b60648201526084016104b7565b61070e82826112cf565b33600090815260036020526040812091909155600280548492906107339084906112cf565b909155505060005461074f906001600160a01b03163384610ad9565b60405182815233907f7084f5476618d8e60b11ef0d7d3f06914655adb8793e28ff7f018d4c76d505d59060200160405180910390a25061079c60016000805160206113a483398151915255565b50565b6107a882610626565b6107b181610b4c565b6107bb83836109fc565b50505050565b6001600160a01b03811633146107ea5760405163334bd91960e11b815260040160405180910390fd5b6107f48282610b56565b505050565b610801610bd2565b61080a82610c77565b6108148282610ca1565b5050565b6000610822610d5e565b5060008051602061136483398151915290565b6000918252600080516020611384833981519152602090815260408084206001600160a01b0393909316845291905290205460ff1690565b610875610aa1565b600081116108be5760405162461bcd60e51b81526020600482015260166024820152750546f6b656e5661756c7456313a20616d6f756e743d360541b60448201526064016104b7565b6000612710600154836108d191906112e2565b6108db91906112f9565b905060006108e982846112cf565b600054909150610904906001600160a01b0316333086610da7565b336000908152600360205260408120805483929061092390849061131b565b92505081905550806002600082825461093c919061131b565b9091555050604080518481526020810184905290810182905233907f91ede45f04a37a7c170f5c1207df3b6bc748dc1e04ad5e917a241d0f52feada39060600160405180910390a2505061079c60016000805160206113a483398151915255565b6109a682610626565b6109af81610b4c565b6107bb8383610b56565b6000807ff0c57e16840df040f15088dc2f81fe391c3923bec73e23a9662efc9c229c6a006103ba565b6109ea610de0565b565b6109f4610de0565b6109ea610e05565b6000600080516020611384833981519152610a178484610835565b610a97576000848152602082815260408083206001600160a01b03871684529091529020805460ff19166001179055610a4d3390565b6001600160a01b0316836001600160a01b0316857f2f8788117e7eff1d82e926ec794901d17c78024a50270940304540a733656f0d60405160405180910390a460019150506103ba565b60009150506103ba565b6000805160206113a4833981519152805460011901610ad357604051633ee5aeb560e01b815260040160405180910390fd5b60029055565b6040516001600160a01b038381166024830152604482018390526107f491859182169063a9059cbb906064015b604051602081830303815290604052915060e01b6020820180516001600160e01b038381831617835250505050610e0d565b60016000805160206113a483398151915255565b61079c8133610e7e565b6000600080516020611384833981519152610b718484610835565b15610a97576000848152602082815260408083206001600160a01b0387168085529252808320805460ff1916905551339287917ff6391f5c32d9c69d2a47ea670b442974b53935d1edc7fd64eb21e047a839171b9190a460019150506103ba565b306001600160a01b037f0000000000000000000000000000000000000000000000000000000000000000161480610c5957507f00000000000000000000000000000000000000000000000000000000000000006001600160a01b0316610c4d600080516020611364833981519152546001600160a01b031690565b6001600160a01b031614155b156109ea5760405163703e46dd60e11b815260040160405180910390fd5b7f189ab7a9244df0848122154315af71fe140f3db0fe014031783b0946b8c9d2e361081481610b4c565b816001600160a01b03166352d1902d6040518163ffffffff1660e01b8152600401602060405180830381865afa925050508015610cfb575060408051601f3d908101601f19168201909252610cf89181019061132e565b60015b610d2357604051634c9c8ce360e01b81526001600160a01b03831660048201526024016104b7565b6000805160206113648339815191528114610d5457604051632a87526960e21b8152600481018290526024016104b7565b6107f48383610eb7565b306001600160a01b037f000000000000000000000000000000000000000000000000000000000000000016146109ea5760405163703e46dd60e11b815260040160405180910390fd5b6040516001600160a01b0384811660248301528381166044830152606482018390526107bb9186918216906323b872dd90608401610b06565b610de8610f0d565b6109ea57604051631afcd79f60e31b815260040160405180910390fd5b610b38610de0565b600080602060008451602086016000885af180610e30576040513d6000823e3d81fd5b50506000513d91508115610e48578060011415610e55565b6001600160a01b0384163b155b156107bb57604051635274afe760e01b81526001600160a01b03851660048201526024016104b7565b610e888282610835565b6108145760405163e2517d3f60e01b81526001600160a01b0382166004820152602481018390526044016104b7565b610ec082610f27565b6040516001600160a01b038316907fbc7cd75a20ee27fd9adebab32041f755214dbc6bffa90cc0225b39da2e5c2d3b90600090a2805115610f05576107f48282610f8c565b610814611002565b6000610f176109b9565b54600160401b900460ff16919050565b806001600160a01b03163b600003610f5d57604051634c9c8ce360e01b81526001600160a01b03821660048201526024016104b7565b60008051602061136483398151915280546001600160a01b0319166001600160a01b0392909216919091179055565b6060600080846001600160a01b031684604051610fa99190611347565b600060405180830381855af49150503d8060008114610fe4576040519150601f19603f3d011682016040523d82523d6000602084013e610fe9565b606091505b5091509150610ff9858383611021565b95945050505050565b34156109ea5760405163b398979f60e01b815260040160405180910390fd5b6060826110365761103182611080565b611079565b815115801561104d57506001600160a01b0384163b155b1561107657604051639996b31560e01b81526001600160a01b03851660048201526024016104b7565b50805b9392505050565b80511561108f57805160208201fd5b60405163d6bda27560e01b815260040160405180910390fd5b6000602082840312156110ba57600080fd5b81356001600160e01b03198116811461107957600080fd5b80356001600160a01b03811681146110e957600080fd5b919050565b60008060006060848603121561110357600080fd5b61110c846110d2565b925061111a602085016110d2565b9150604084013590509250925092565b60006020828403121561113c57600080fd5b5035919050565b6000806040838503121561115657600080fd5b82359150611166602084016110d2565b90509250929050565b634e487b7160e01b600052604160045260246000fd5b6000806040838503121561119857600080fd5b6111a1836110d2565b9150602083013567ffffffffffffffff808211156111be57600080fd5b818501915085601f8301126111d257600080fd5b8135818111156111e4576111e461116f565b604051601f8201601f19908116603f0116810190838211818310171561120c5761120c61116f565b8160405282815288602084870101111561122557600080fd5b8260208601602083013760006020848301015280955050505050509250929050565b60006020828403121561125957600080fd5b611079826110d2565b60005b8381101561127d578181015183820152602001611265565b50506000910152565b60208152600082518060208401526112a5816040850160208701611262565b601f01601f19169190910160400192915050565b634e487b7160e01b600052601160045260246000fd5b818103818111156103ba576103ba6112b9565b80820281158282048414176103ba576103ba6112b9565b60008261131657634e487b7160e01b600052601260045260246000fd5b500490565b808201808211156103ba576103ba6112b9565b60006020828403121561134057600080fd5b5051919050565b60008251611359818460208701611262565b919091019291505056fe360894a13ba1a3210667c828492db98dca3e2076cc3735a920a3ca505d382bbc02dd7bc7dec4dceedda775e58dd541e08a116c6c53815c0bd028192f7b6268009b779b17422d0df92223018b32b4d1fa46e071723d6817e2486d003becc55f00a2646970667358221220e8cab299a339af8f2a29f0e6fb74317a2f36cc3dc44a30d03d7ee244c8e7c45d64736f6c63430008180033",
  "linkReferences": {},
  "deployedLinkReferences": {}
}