{
  "_format": "hh-sol-artifact-1",
  "contractName": "TokenVaultV3",
  "sourceName": "contracts/TokenVaultV3.sol",
  "abi": [
    {
      "inputs": [],
      "stateMutability": "nonpayable",
      "type": "constructor"
    },
    {
      "inputs": [],
      "name": "AccessControlBadConfirmation",
      "type": "error"
    },
    {
      "inputs": [
        {
          "internalType": "address",
          "name": "account",
          "type": "address"
        },
        {
          "internalType": "bytes32",
          "name": "neededRole",
          "type": "bytes32"
        }
      ],
      "name": "AccessControlUnauthorizedAccount",
      "type": "error"
    },
    {
      "inputs": [
        {
          "internalType": "address",
          "name": "target",
          "type": "address"
        }
      ],
      "name": "AddressEmptyCode",
      "type": "error"
    },
    {
      "inputs": [
        {
          "internalType": "address",
          "name": "implementation",
          "type": "address"
        }
      ],
      "name": "ERC1967InvalidImplementation",
      "type": "error"
    },
    {
      "inputs": [],
      "name": "ERC1967NonPayable",
      "type": "error"
    },
    {
      "inputs": [],
      "name": "FailedCall",
      "type": "error"
    },
    {
      "inputs": [],
      "name": "InvalidInitialization",
      "type": "error"
    },
    {
      "inputs": [],
      "name": "NotInitializing",
      "type": "error"
    },
    {
      "inputs": [],
      "name": "ReentrancyGuardReentrantCall",
      "type": "error"
    },
    {
      "inputs": [
        {
          "internalType": "address",
          "name": "token",
          "type": "address"
        }
      ],
      "name": "SafeERC20FailedOperation",
      "type": "error"
    },
    {
      "inputs": [],
      "name": "UUPSUnauthorizedCallContext",
      "type": "error"
    },
    {
      "inputs": [
        {
          "internalType": "bytes32",
          "name": "slot",
          "type": "bytes32"
        }
      ],
      "name": "UUPSUnsupportedProxiableUUID",
      "type": "error"
    },
    {
      "anonymous": false,
      "inputs": [
        {
          "indexed": true,
          "internalType": "address",
          "name": "user",
          "type": "address"
        },
        {
          "indexed": false,
          "internalType": "uint256",
          "name": "grossAmount",
          "type": "uint256"
        },
        {
          "indexed": false,
          "internalType": "uint256",
          "name": "feeAmount",
          "type": "uint256"
        },
        {
          "indexed": false,
          "internalType": "uint256",
          "name": "netAmount",
          "type": "uint256"
        }
      ],
      "name": "Deposited",
      "type": "event"
    },
    {
      "anonymous": false,
      "inputs": [
        {
          "indexed": true,
          "internalType": "address",
          "name": "by",
          "type": "address"
        }
      ],
      "name": "DepositsPaused",
      "type": "event"
    },
    {
      "anonymous": false,
      "inputs": [
        {
          "indexed": true,
          "internalType": "address",
          "name": "by",
          "type": "address"
        }
      ],
      "name": "DepositsUnpaused",
      "type": "event"
    },
    {
      "anonymous": false,
      "inputs": [
        {
          "indexed": true,
          "internalType": "address",
          "name": "user",
          "type": "address"
        },
        {
          "indexed": false,
          "internalType": "uint256",
          "name": "amount",
          "type": "uint256"
        }
      ],
      "name": "EmergencyWithdrawn",
      "type": "event"
    },
    {
      "anonymous": false,
      "inputs": [
        {
          "indexed": false,
          "internalType": "uint64",
          "name": "version",
          "type": "uint64"
        }
      ],
      "name": "Initialized",
      "type": "event"
    },
    {
      "anonymous": false,
      "inputs": [
        {
          "indexed": true,
          "internalType": "bytes32",
          "name": "role",
          "type": "bytes32"
        },
        {
          "indexed": true,
          "internalType": "bytes32",
          "name": "previousAdminRole",
          "type": "bytes32"
        },
        {
          "indexed": true,
          "internalType": "bytes32",
          "name": "newAdminRole",
          "type": "bytes32"
        }
      ],
      "name": "RoleAdminChanged",
      "type": "event"
    },
    {
      "anonymous": false,
      "inputs": [
        {
          "indexed": true,
          "internalType": "bytes32",
          "name": "role",
          "type": "bytes32"
        },
        {
          "indexed": true,
          "internalType": "address",
          "name": "account",
          "type": "address"
        },
        {
          "indexed": true,
          "internalType": "address",
          "name": "sender",
          "type": "address"
        }
      ],
      "name": "RoleGranted",
      "type": "event"
    },
    {
      "anonymous": false,
      "inputs": [
        {
          "indexed": true,
          "internalType": "bytes32",
          "name": "role",
          "type": "bytes32"
        },
        {
          "indexed": true,
          "internalType": "address",
          "name": "account",
          "type": "address"
        },
        {
          "indexed": true,
          "internalType": "address",
          "name": "sender",
          "type": "address"
        }
      ],
      "name": "RoleRevoked",
      "type": "event"
    },
    {
      "anonymous": false,
      "inputs": [
        {
          "indexed": true,
          "internalType": "address",
          "name": "implementation",
          "type": "address"
        }
      ],
      "name": "Upgraded",
      "type": "event"
    },
    {
      "anonymous": false,
      "inputs": [
        {
          "indexed": false,
          "internalType": "uint256",
          "name": "delaySeconds",
          "type": "uint256"
        }
      ],
      "name": "WithdrawalDelayUpdated",
      "type": "event"
    },
    {
      "anonymous": false,
      "inputs": [
        {
          "indexed": true,
          "internalType": "address",
          "name": "user",
          "type": "address"
        },
        {
          "indexed": false,
          "internalType": "uint256",
          "name": "amount",
          "type": "uint256"
        }
      ],
      "name": "WithdrawalExecuted",
      "type": "event"
    },
    {
      "anonymous": false,
      "inputs": [
        {
          "indexed": true,
          "internalType": "address",
          "name": "user",
          "type": "address"
        },
        {
          "indexed": false,
          "internalType": "uint256",
          "name": "amount",
          "type": "uint256"
        },
        {
          "indexed": false,
          "internalType": "uint256",
          "name": "requestTime",
          "type": "uint256"
        }
      ],
      "name": "WithdrawalRequested",
      "type": "event"
    },
    {
      "anonymous": false,
      "inputs": [
        {
          "indexed": true,
          "internalType": "address",
          "name": "user",
          "type": "address"
        },
        {
          "indexed": false,
          "internalType": "uint256",
          "name": "amount",
          "type": "uint256"
        }
      ],
      "name": "Withdrawn",
      "type": "event"
    },
    {
      "anonymous": false,
      "inputs": [
        {
          "indexed": true,
          "internalType": "address",
          "name": "user",
          "type": "address"
        },
        {
          "indexed": false,
          "internalType": "uint256",
          "name": "amount",
          "type": "uint256"
        }
      ],
      "name": "YieldClaimed",
      "type": "event"
    },
    {
      "anonymous": false,
      "inputs": [
        {
          "indexed": false,
          "internalType": "uint256",
          "name": "yieldRateBps",
          "type": "uint256"
        }
      ],
      "name": "YieldRateUpdated",
      "type": "event"
    },
    {
      "inputs": [],
      "name": "DEFAULT_ADMIN_ROLE",
      "outputs": [
        {
          "internalType": "bytes32",
          "name": "",
          "type": "bytes32"
        }
      ],
      "stateMutability": "view",
      "type": "function"
    },
    {
      "inputs": [],
      "name": "PAUSER_ROLE",
      "outputs": [
        {
          "internalType": "bytes32",
          "name": "",
          "type": "bytes32"
        }
      ],
      "stateMutability": "view",
      "type": "function"
    },
    {
      "inputs": [],
      "name": "UPGRADER_ROLE",
      "outputs": [
        {
          "internalType": "bytes32",
          "name": "",
          "type": "bytes32"
        }
      ],
      "stateMutability": "view",
      "type": "function"
    },
    {
      "inputs": [],
      "name": "UPGRADE_INTERFACE_VERSION",
      "outputs": [
        {
          "internalType": "string",
          "name": "",
          "type": "string"
        }
      ],
      "stateMutability": "view",
      "type": "function"
    },
    {
      "inputs": [
        {
          "internalType": "address",
          "name": "user",
          "type": "address"
        }
      ],
      "name": "balanceOf",
      "outputs": [
        {
          "internalType": "uint256",
          "name": "",
          "type": "uint256"
        }
      ],
      "stateMutability": "view",
      "type": "function"
    },
    {
      "inputs": [],
      "name": "claimYield",
      "outputs": [
        {
          "internalType": "uint256",
          "name": "",
          "type": "uint256"
        }
      ],
      "stateMutability": "nonpayable",
      "type": "function"
    },
    {
      "inputs": [
        {
          "internalType": "uint256",
          "name": "amount",
          "type": "uint256"
        }
      ],
      "name": "deposit",
      "outputs": [],
      "stateMutability": "nonpayable",
      "type": "function"
    },
    {
      "inputs": [],
      "name": "emergencyWithdraw",
      "outputs": [
        {
          "internalType": "uint256",
          "name": "",
          "type": "uint256"
        }
      ],
      "stateMutability": "nonpayable",
      "type": "function"
    },
    {
      "inputs": [],
      "name": "executeWithdrawal",
      "outputs": [
        {
          "internalType": "uint256",
          "name": "",
          "type": "uint256"
        }
      ],
      "stateMutability": "nonpayable",
      "type": "function"
    },
    {
      "inputs": [],
      "name": "getDepositFee",
      "outputs": [
        {
          "internalType": "uint256",
          "name": "",
          "type": "uint256"
        }
      ],
      "stateMutability": "view",
      "type": "function"
    },
    {
      "inputs": [],
      "name": "getImplementationVersion",
      "outputs": [
        {
          "internalType": "string",
          "name": "",
          "type": "string"
        }
      ],
      "stateMutability": "pure",
      "type": "function"
    },
    {
      "inputs": [
        {
          "internalType": "bytes32",
          "name": "role",
          "type": "bytes32"
        }
      ],
      "name": "getRoleAdmin",
      "outputs": [
        {
          "internalType": "bytes32",
          "name": "",
          "type": "bytes32"
        }
      ],
      "stateMutability": "view",
      "type": "function"
    },
    {
      "inputs": [
        {
          "internalType": "address",
          "name": "user",
          "type": "address"
        }
      ],
      "name": "getUserYield",
      "outputs": [
        {
          "internalType": "uint256",
          "name": "",
          "type": "uint256"
        }
      ],
      "stateMutability": "view",
      "type": "function"
    },
    {
      "inputs": [],
      "name": "getWithdrawalDelay",
      "outputs": [
        {
          "internalType": "uint256",
          "name": "",
          "type": "uint256"
        }
      ],
      "stateMutability": "view",
      "type": "function"
    },
    {
      "inputs": [
        {
          "internalType": "address",
          "name": "user",
          "type": "address"
        }
      ],
      "name": "getWithdrawalRequest",
      "outputs": [
        {
          "internalType": "uint256",
          "name": "amount",
          "type": "uint256"
        },
        {
          "internalType": "uint256",
          "name": "requestTime",
          "type": "uint256"
        }
      ],
      "stateMutability": "view",
      "type": "function"
    },
    {
      "inputs": [],
      "name": "getYieldRate",
      "outputs": [
        {
          "internalType": "uint256",
          "name": "",
          "type": "uint256"
        }
      ],
      "stateMutability": "view",
      "type": "function"
    },
    {
      "inputs": [
        {
          "internalType": "bytes32",
          "name": "role",
          "type": "bytes32"
        },
        {
          "internalType": "address",
          "name": "account",
          "type": "address"
        }
      ],
      "name": "grantRole",
      "outputs": [],
      "stateMutability": "nonpayable",
      "type": "function"
    },
    {
      "inputs": [
        {
          "internalType": "bytes32",
          "name": "role",
          "type": "bytes32"
        },
        {
          "internalType": "address",
          "name": "account",
          "type": "address"
        }
      ],
      "name": "hasRole",
      "outputs": [
        {
          "internalType": "bool",
          "name": "",
          "type": "bool"
        }
      ],
      "stateMutability": "view",
      "type": "function"
    },
    {
      "inputs": [
        {
          "internalType": "address",
          "name": "_tokenAddr",
          "type": "address"
        },
        {
          "internalType": "address",
          "name": "_admin",
          "type": "address"
        },
        {
          "internalType": "uint256",
          "name": "_depositFee",
          "type": "uint256"
        }
      ],
      "name": "initialize",
      "outputs": [],
      "stateMutability": "nonpayable",
      "type": "function"
    },
    {
      "inputs": [],
      "name": "initializeV2",
      "outputs": [],
      "stateMutability": "nonpayable",
      "type": "function"
    },
    {
      "inputs": [],
      "name": "initializeV3",
      "outputs": [],
      "stateMutability": "nonpayable",
      "type": "function"
    },
    {
      "inputs": [],
      "name": "isDepositsPaused",
      "outputs": [
        {
          "internalType": "bool",
          "name": "",
          "type": "bool"
        }
      ],
      "stateMutability": "view",
      "type": "function"
    },
    {
      "inputs": [],
      "name": "pauseDeposits",
      "outputs": [],
      "stateMutability": "nonpayable",
      "type": "function"
    },
    {
      "inputs": [],
      "name": "proxiableUUID",
      "outputs": [
        {
          "internalType": "bytes32",
          "name": "",
          "type": "bytes32"
        }
      ],
      "stateMutability": "view",
      "type": "function"
    },
    {
      "inputs": [
        {
          "internalType": "bytes32",
          "name": "role",
          "type": "bytes32"
        },
        {
          "internalType": "address",
          "name": "callerConfirmation",
          "type": "address"
        }
      ],
      "name": "renounceRole",
      "outputs": [],
      "stateMutability": "nonpayable",
      "type": "function"
    },
    {
      "inputs": [
        {
          "internalType": "uint256",
          "name": "amount",
          "type": "uint256"
        }
      ],
      "name": "requestWithdrawal",
      "outputs": [],
      "stateMutability": "nonpayable",
      "type": "function"
    },
    {
      "inputs": [
        {
          "internalType": "bytes32",
          "name": "role",
          "type": "bytes32"
        },
        {
          "internalType": "address",
          "name": "account",
          "type": "address"
        }
      ],
      "name": "revokeRole",
      "outputs": [],
      "stateMutability": "nonpayable",
      "type": "function"
    },
    {
      "inputs": [
        {
          "internalType": "uint256",
          "name": "_delaySeconds",
          "type": "uint256"
        }
      ],
      "name": "setWithdrawalDelay",
      "outputs": [],
      "stateMutability": "nonpayable",
      "type": "function"
    },
    {
      "inputs": [
        {
          "internalType": "uint256",
          "name": "_yieldRate",
          "type": "uint256"
        }
      ],
      "name": "setYieldRate",
      "outputs": [],
      "stateMutability": "nonpayable",
      "type": "function"
    },
    {
      "inputs": [
        {
          "internalType": "bytes4",
          "name": "interfaceId",
          "type": "bytes4"
        }
      ],
      "name": "supportsInterface",
      "outputs": [
        {
          "internalType": "bool",
          "name": "",
          "type": "bool"
        }
      ],
      "stateMutability": "view",
      "type": "function"
    },
    {
      "inputs": [],
      "name": "totalDeposits",
      "outputs": [
        {
          "internalType": "uint256",
          "name": "",
          "type": "uint256"
        }
      ],
      "stateMutability": "view",
      "type": "function"
    },
    {
      "inputs": [],
      "name": "unpauseDeposits",
      "outputs": [],
      "stateMutability": "nonpayable",
      "type": "function"
    },
    {
      "inputs": [
        {
          "internalType": "address",
          "name": "newImplementation",
          "type": "address"
        },
        {
          "internalType": "bytes",
          "name": "data",
          "type": "bytes"
        }
      ],
      "name": "upgradeToAndCall",
      "outputs": [],
      "stateMutability": "payable",
      "type": "function"
    },
    {
      "inputs": [
        {
          "internalType": "uint256",
          "name": "amount",
          "type": "uint256"
        }
      ],
      "name": "withdraw",
      "outputs": [],
      "stateMutability": "nonpayable",
      "type": "function"
    }
  ],
  "bytecode": "0x60a0604052306080523480156200001557600080fd5b50620000206200003a565b6200002a6200003a565b620000346200003a565b620000ee565b7ff0c57e16840df040f15088dc2f81fe391c3923bec73e23a9662efc9c229c6a00805468010000000000000000900460ff16156200008b5760405163f92ee8a960e01b815260040160405180910390fd5b80546001600160401b0390811614620000eb5780546001600160401b0319166001600160401b0390811782556040519081527fc7f505b2f371ae2175ee4913f4499e1f2633a7b5936321eed1cdaeb6115181d29060200160405180910390a15b50565b60805161212262000118600039600081816118c4015281816118ed0152611a5001526121226000f3fe6080604052600436106101f95760003560e01c806363d8882a1161010d578063b6b55f25116100a0578063db2e21bc1161006f578063db2e21bc146105c3578063e63ab1e9146105d8578063f10098991461060c578063f72c0d8b14610621578063fa45aa001461065557600080fd5b8063b6b55f2514610538578063bc327e4014610558578063d2c13da514610583578063d547741f146105a357600080fd5b806391d14854116100dc57806391d14854146104a55780639ee679e8146104c5578063a217fddf146104e5578063ad3cb1cc146104fa57600080fd5b806363d8882a146103dd57806370a08231146103f25780637d882097146104285780638c661b5d1461043d57600080fd5b80632e1a7d4d11610190578063406cf2291161015f578063406cf2291461036b5780634229abdd146103805780634f1ef286146103a057806352d1902d146103b35780635cd8a76b146103c857600080fd5b80632e1a7d4d146102f65780632f2ff15d1461031657806336568abe1461033657806338e454b11461035657600080fd5b80631411dab0116101cc5780631411dab01461027e5780631794bb3c1461029e578063248a9ca3146102be57806327042b84146102de57600080fd5b806301ffc9a7146101fe5780630219198014610233578063031609401461024a5780630de705b514610269575b600080fd5b34801561020a57600080fd5b5061021e610219366004611d8f565b61066a565b60405190151581526020015b60405180910390f35b34801561023f57600080fd5b506102486106a1565b005b34801561025657600080fd5b506068545b60405190815260200161022a565b34801561027557600080fd5b5060015461025b565b34801561028a57600080fd5b50610248610299366004611db9565b610706565b3480156102aa57600080fd5b506102486102b9366004611dee565b6107a5565b3480156102ca57600080fd5b5061025b6102d9366004611db9565b610a06565b3480156102ea57600080fd5b5060385460ff1661021e565b34801561030257600080fd5b50610248610311366004611db9565b610a28565b34801561032257600080fd5b50610248610331366004611e2a565b610b7f565b34801561034257600080fd5b50610248610351366004611e2a565b610ba1565b34801561036257600080fd5b50610248610bd9565b34801561037757600080fd5b5061025b610caa565b34801561038c57600080fd5b5061025b61039b366004611e56565b610eae565b6102486103ae366004611e87565b610f55565b3480156103bf57600080fd5b5061025b610f74565b3480156103d457600080fd5b50610248610f91565b3480156103e957600080fd5b50610248610f9d565b3480156103fe57600080fd5b5061025b61040d366004611e56565b6001600160a01b031660009081526003602052604090205490565b34801561043457600080fd5b5060025461025b565b34801561044957600080fd5b50610490610458366004611e56565b6001600160a01b0316600090815260696020908152604091829020825180840190935280548084526001909101549290910182905291565b6040805192835260208301919091520161022a565b3480156104b157600080fd5b5061021e6104c0366004611e2a565b610fff565b3480156104d157600080fd5b506102486104e0366004611db9565b611037565b3480156104f157600080fd5b5061025b600081565b34801561050657600080fd5b5061052b604051806040016040528060058152602001640352e302e360dc1b81525081565b60405161022a9190611f6d565b34801561054457600080fd5b50610248610553366004611db9565b61111c565b34801561056457600080fd5b50604080518082019091526002815261563360f01b602082015261052b565b34801561058f57600080fd5b5061024861059e366004611db9565b6112c8565b3480156105af57600080fd5b506102486105be366004611e2a565b6113ad565b3480156105cf57600080fd5b5061025b6113c9565b3480156105e457600080fd5b5061025b7f65d7a28e3265b37a6474929f336521b332c1681b933f6cb9f3376673440d862a81565b34801561061857600080fd5b5060365461025b565b34801561062d57600080fd5b5061025b7f189ab7a9244df0848122154315af71fe140f3db0fe014031783b0946b8c9d2e381565b34801561066157600080fd5b5061025b6114d1565b60006001600160e01b03198216637965db0b60e01b148061069b57506301ffc9a760e01b6001600160e01b03198316145b92915050565b7f65d7a28e3265b37a6474929f336521b332c1681b933f6cb9f3376673440d862a6106cb816116a0565b6038805460ff1916600117905560405133907feb225a736fbfee3f85ccb72bdf84ff0396ab358b7970e2cc351ab3e3fd92358d90600090a250565b6000610711816116a0565b6127108211156107685760405162461bcd60e51b815260206004820152601a60248201527f546f6b656e5661756c7456323a20696e76616c6964207261746500000000000060448201526064015b60405180910390fd5b60368290556040518281527f5842a31a46ea5ce5b950bf6d04c8b832a9deae72e0e54bcf928f0d72123f2865906020015b60405180910390a15050565b60006107af6116aa565b805490915060ff600160401b820416159067ffffffffffffffff166000811580156107d75750825b905060008267ffffffffffffffff1660011480156107f45750303b155b905081158015610802575080155b156108205760405163f92ee8a960e01b815260040160405180910390fd5b845467ffffffffffffffff19166001178555831561084a57845460ff60401b1916600160401b1785555b6001600160a01b0388166108a05760405162461bcd60e51b815260206004820152601d60248201527f546f6b656e5661756c7456313a20746f6b656e2061646472207a65726f000000604482015260640161075f565b6001600160a01b0387166108f65760405162461bcd60e51b815260206004820152601d60248201527f546f6b656e5661756c7456313a2061646d696e2061646472207a65726f000000604482015260640161075f565b6127108611156109485760405162461bcd60e51b815260206004820152601960248201527f546f6b656e5661756c7456313a20696e76616c69642066656500000000000000604482015260640161075f565b6109506116d3565b6109586116d3565b6109606116dd565b600080546001600160a01b0319166001600160a01b038a16178155600187905561098a90886116ed565b506109b57f189ab7a9244df0848122154315af71fe140f3db0fe014031783b0946b8c9d2e3886116ed565b5083156109fc57845460ff60401b19168555604051600181527fc7f505b2f371ae2175ee4913f4499e1f2633a7b5936321eed1cdaeb6115181d29060200160405180910390a15b5050505050505050565b60009081526000805160206120ad833981519152602052604090206001015490565b610a30611792565b60008111610a795760405162461bcd60e51b81526020600482015260166024820152750546f6b656e5661756c7456313a20616d6f756e743d360541b604482015260640161075f565b3360009081526003602052604090205481811015610ae45760405162461bcd60e51b815260206004820152602260248201527f546f6b656e5661756c7456313a20696e73756666696369656e742062616c616e604482015261636560f01b606482015260840161075f565b610aee8282611fb6565b3360009081526003602052604081209190915560028054849290610b13908490611fb6565b9091555050600054610b2f906001600160a01b031633846117ca565b60405182815233907f7084f5476618d8e60b11ef0d7d3f06914655adb8793e28ff7f018d4c76d505d59060200160405180910390a250610b7c60016000805160206120cd83398151915255565b50565b610b8882610a06565b610b91816116a0565b610b9b83836116ed565b50505050565b6001600160a01b0381163314610bca5760405163334bd91960e11b815260040160405180910390fd5b610bd4828261183d565b505050565b60036000610be56116aa565b8054909150600160401b900460ff1680610c0d5750805467ffffffffffffffff808416911610155b15610c2b5760405163f92ee8a960e01b815260040160405180910390fd5b805468ffffffffffffffffff191667ffffffffffffffff831617600160401b178155610c556116d3565b610c5d6116d3565b610c656116dd565b805460ff60401b1916815560405167ffffffffffffffff831681527fc7f505b2f371ae2175ee4913f4499e1f2633a7b5936321eed1cdaeb6115181d290602001610799565b6000610cb4611792565b3360009081526037602052604081205490819003610d1a57336000818152603760209081526040808320429055519182527fc04825ba3f383b602255d2a13065a68e325c65c9e0ed5d031ea2b06f641873af910160405180910390a26000915050610e94565b6000610d2533610eae565b33600090815260376020526040902042905590508015610e5b5780600254610d4d9190611fc9565b6000546040516370a0823160e01b81523060048201526001600160a01b03909116906370a0823190602401602060405180830381865afa158015610d95573d6000803e3d6000fd5b505050506040513d601f19601f82011682018060405250810190610db99190611fdc565b1015610e1d5760405162461bcd60e51b815260206004820152602d60248201527f546f6b656e5661756c7456323a20696e73756666696369656e7420726573657260448201526c1d995cc8199bdc881e5a595b19609a1b606482015260840161075f565b3360009081526003602052604081208054839290610e3c908490611fc9565b925050819055508060026000828254610e559190611fc9565b90915550505b60405181815233907fc04825ba3f383b602255d2a13065a68e325c65c9e0ed5d031ea2b06f641873af9060200160405180910390a29150505b610eab60016000805160206120cd83398151915255565b90565b6001600160a01b038116600090815260036020526040812054808203610ed75750600092915050565b6001600160a01b038316600090815260376020526040812054908115610efd5781610eff565b425b905081600003610f1457506000949350505050565b6000610f208242611fb6565b905064496cebb8008160365486610f379190611ff5565b610f419190611ff5565b610f4b919061200c565b9695505050505050565b610f5d6118b9565b610f668261195e565b610f708282611988565b5050565b6000610f7e611a45565b5060008051602061208d83398151915290565b60026000610be56116aa565b7f65d7a28e3265b37a6474929f336521b332c1681b933f6cb9f3376673440d862a610fc7816116a0565b6038805460ff1916905560405133907fd92e31f504caf26579aa9a5860a669bf0ccf07c267baa65bc79bf3ee57cfa27c90600090a250565b60009182526000805160206120ad833981519152602090815260408084206001600160a01b0393909316845291905290205460ff1690565b600081116110805760405162461bcd60e51b81526020600482015260166024820152750546f6b656e5661756c7456333a20616d6f756e743d360541b604482015260640161075f565b336000908152600360205260409020548111156110af5760405162461bcd60e51b815260040161075f9061202e565b6040805180820182528281524260208083018281523360008181526069845286902094518555905160019094019390935583518581529081019190915290917f24b91f4f47caf44230a57777a9be744924e82bf666f2d5702faf97df35e60f9f910160405180910390a250565b611124611792565b60385460ff16156111775760405162461bcd60e51b815260206004820152601d60248201527f546f6b656e5661756c7456323a206465706f7369747320706175736564000000604482015260640161075f565b600081116111c05760405162461bcd60e51b81526020600482015260166024820152750546f6b656e5661756c7456313a20616d6f756e743d360541b604482015260640161075f565b6000612710600154836111d39190611ff5565b6111dd919061200c565b905060006111eb8284611fb6565b600054909150611206906001600160a01b0316333086611a8e565b3360009081526003602052604081208054839290611225908490611fc9565b92505081905550806002600082825461123e9190611fc9565b909155505033600090815260376020526040812054900361126c573360009081526037602052604090204290555b604080518481526020810184905290810182905233907f91ede45f04a37a7c170f5c1207df3b6bc748dc1e04ad5e917a241d0f52feada39060600160405180910390a25050610b7c60016000805160206120cd83398151915255565b60006112d3816116a0565b610e108210156113255760405162461bcd60e51b815260206004820152601d60248201527f546f6b656e5661756c7456333a2064656c617920746f6f20736d616c6c000000604482015260640161075f565b62278d008211156113785760405162461bcd60e51b815260206004820152601d60248201527f546f6b656e5661756c7456333a2064656c617920746f6f206c61726765000000604482015260640161075f565b60688290556040518281527fb34b8e54226bc5e8f4a9d846e344e0c42d09eeb1c79798df7ce7460c16071e2d90602001610799565b6113b682610a06565b6113bf816116a0565b610b9b838361183d565b60006113d3611792565b33600090815260036020526040902054806114305760405162461bcd60e51b815260206004820152601860248201527f546f6b656e5661756c7456333a206e6f2062616c616e63650000000000000000604482015260640161075f565b3360009081526069602090815260408083208381556001018390556003909152812081905560028054839290611467908490611fb6565b9091555050600054611483906001600160a01b031633836117ca565b60405181815233907f2e39961a70a10f4d46383948095ac2752b3ee642a7c76aa827410aaff08c2e519060200160405180910390a29050610eab60016000805160206120cd83398151915255565b60006114db611792565b3360009081526069602090815260409182902082518084019093528054808452600190910154918301919091526115545760405162461bcd60e51b815260206004820152601860248201527f546f6b656e5661756c7456333a206e6f20726571756573740000000000000000604482015260640161075f565b60685481602001516115669190611fc9565b4210156115b55760405162461bcd60e51b815260206004820152601f60248201527f546f6b656e5661756c7456333a2064656c6179206e6f7420656c617073656400604482015260640161075f565b336000908152606960209081526040808320838155600101839055600390915290205481518110156115f95760405162461bcd60e51b815260040161075f9061202e565b81516116059082611fb6565b336000908152600360205260408120919091558251600280549192909161162d908490611fb6565b9091555050815160005461164e916001600160a01b039091169033906117ca565b815160405190815233907f1131c2afe9ce72c59360d085f89bfdd088fcf4a3c93eec6cc5ff42f5d6b0801f9060200160405180910390a250519050610eab60016000805160206120cd83398151915255565b610b7c8133611ac7565b6000807ff0c57e16840df040f15088dc2f81fe391c3923bec73e23a9662efc9c229c6a0061069b565b6116db611b00565b565b6116e5611b00565b6116db611b25565b60006000805160206120ad8339815191526117088484610fff565b611788576000848152602082815260408083206001600160a01b03871684529091529020805460ff1916600117905561173e3390565b6001600160a01b0316836001600160a01b0316857f2f8788117e7eff1d82e926ec794901d17c78024a50270940304540a733656f0d60405160405180910390a4600191505061069b565b600091505061069b565b6000805160206120cd8339815191528054600119016117c457604051633ee5aeb560e01b815260040160405180910390fd5b60029055565b6040516001600160a01b03838116602483015260448201839052610bd491859182169063a9059cbb906064015b604051602081830303815290604052915060e01b6020820180516001600160e01b038381831617835250505050611b2d565b60016000805160206120cd83398151915255565b60006000805160206120ad8339815191526118588484610fff565b15611788576000848152602082815260408083206001600160a01b0387168085529252808320805460ff1916905551339287917ff6391f5c32d9c69d2a47ea670b442974b53935d1edc7fd64eb21e047a839171b9190a4600191505061069b565b306001600160a01b037f000000000000000000000000000000000000000000000000000000000000000016148061194057507f00000000000000000000000000000000000000000000000000000000000000006001600160a01b031661193460008051602061208d833981519152546001600160a01b031690565b6001600160a01b031614155b156116db5760405163703e46dd60e11b815260040160405180910390fd5b7f189ab7a9244df0848122154315af71fe140f3db0fe014031783b0946b8c9d2e3610f70816116a0565b816001600160a01b03166352d1902d6040518163ffffffff1660e01b8152600401602060405180830381865afa9250505080156119e2575060408051601f3d908101601f191682019092526119df91810190611fdc565b60015b611a0a57604051634c9c8ce360e01b81526001600160a01b038316600482015260240161075f565b60008051602061208d8339815191528114611a3b57604051632a87526960e21b81526004810182905260240161075f565b610bd48383611b9e565b306001600160a01b037f000000000000000000000000000000000000000000000000000000000000000016146116db5760405163703e46dd60e11b815260040160405180910390fd5b6040516001600160a01b038481166024830152838116604483015260648201839052610b9b9186918216906323b872dd906084016117f7565b611ad18282610fff565b610f705760405163e2517d3f60e01b81526001600160a01b03821660048201526024810183905260440161075f565b611b08611bf4565b6116db57604051631afcd79f60e31b815260040160405180910390fd5b611829611b00565b600080602060008451602086016000885af180611b50576040513d6000823e3d81fd5b50506000513d91508115611b68578060011415611b75565b6001600160a01b0384163b155b15610b9b57604051635274afe760e01b81526001600160a01b038516600482015260240161075f565b611ba782611c0e565b6040516001600160a01b038316907fbc7cd75a20ee27fd9adebab32041f755214dbc6bffa90cc0225b39da2e5c2d3b90600090a2805115611bec57610bd48282611c73565b610f70611ce9565b6000611bfe6116aa565b54600160401b900460ff16919050565b806001600160a01b03163b600003611c4457604051634c9c8ce360e01b81526001600160a01b038216600482015260240161075f565b60008051602061208d83398151915280546001600160a01b0319166001600160a01b0392909216919091179055565b6060600080846001600160a01b031684604051611c909190612070565b600060405180830381855af49150503d8060008114611ccb576040519150601f19603f3d011682016040523d82523d6000602084013e611cd0565b606091505b5091509150611ce0858383611d08565b95945050505050565b34156116db5760405163b398979f60e01b815260040160405180910390fd5b606082611d1d57611d1882611d67565b611d60565b8151158015611d3457506001600160a01b0384163b155b15611d5d57604051639996b31560e01b81526001600160a01b038516600482015260240161075f565b50805b9392505050565b805115611d7657805160208201fd5b60405163d6bda27560e01b815260040160405180910390fd5b600060208284031215611da157600080fd5b81356001600160e01b031981168114611d6057600080fd5b600060208284031215611dcb57600080fd5b5035919050565b80356001600160a01b0381168114611de957600080fd5b919050565b600080600060608486031215611e0357600080fd5b611e0c84611dd2565b9250611e1a60208501611dd2565b9150604084013590509250925092565b60008060408385031215611e3d57600080fd5b82359150611e4d60208401611dd2565b90509250929050565b600060208284031215611e6857600080fd5b611d6082611dd2565b634e487b7160e01b600052604160045260246000fd5b60008060408385031215611e9a57600080fd5b611ea383611dd2565b9150602083013567ffffffffffffffff80821115611ec057600080fd5b818501915085601f830112611ed457600080fd5b813581811115611ee657611ee6611e71565b604051601f8201601f19908116603f01168101908382118183101715611f0e57611f0e611e71565b81604052828152886020848701011115611f2757600080fd5b8260208601602083013760006020848301015280955050505050509250929050565b60005b83811015611f64578181015183820152602001611f4c565b50506000910152565b6020815260008251806020840152611f8c816040850160208701611f49565b601f01601f19169190910160400192915050565b634e487b7160e01b600052601160045260246000fd5b8181038181111561069b5761069b611fa0565b8082018082111561069b5761069b611fa0565b600060208284031215611fee57600080fd5b5051919050565b808202811582820484141761069b5761069b611fa0565b60008261202957634e487b7160e01b600052601260045260246000fd5b500490565b60208082526022908201527f546f6b656e5661756c7456333a20696e73756666696369656e742062616c616e604082015261636560f01b606082015260800190565b60008251612082818460208701611f49565b919091019291505056fe360894a13ba1a3210667c828492db98dca3e2076cc3735a920a3ca505d382bbc02dd7bc7dec4dceedda775e58dd541e08a116c6c53815c0bd028192f7b6268009b779b17422d0df92223018b32b4d1fa46e071723d6817e2486d003becc55f00a2646970667358221220d662cd18eea3622a4d0eebd0d53ac661d37b6e38d269e0d9cbba9c64ae8114d164736f6c63430008180033",
  "linkReferences": {},
  "deployedLinkReferences": {}
}